{
    "contractName": "GEHR",
    "abi": [
        {
            "inputs": [],
            "stateMutability": "nonpayable",
            "type": "constructor"
        },
        {
            "anonymous": false,
            "inputs": [
                {
                    "indexed": true,
                    "internalType": "address",
                    "name": "owner",
                    "type": "address"
                },
                {
                    "indexed": true,
                    "internalType": "address",
                    "name": "approved",
                    "type": "address"
                },
                {
                    "indexed": true,
                    "internalType": "uint256",
                    "name": "tokenId",
                    "type": "uint256"
                }
            ],
            "name": "Approval",
            "type": "event"
        },
        {
            "anonymous": false,
            "inputs": [
                {
                    "indexed": true,
                    "internalType": "address",
                    "name": "owner",
                    "type": "address"
                },
                {
                    "indexed": true,
                    "internalType": "address",
                    "name": "operator",
                    "type": "address"
                },
                {
                    "indexed": false,
                    "internalType": "bool",
                    "name": "approved",
                    "type": "bool"
                }
            ],
            "name": "ApprovalForAll",
            "type": "event"
        },
        {
            "anonymous": false,
            "inputs": [
                {
                    "indexed": true,
                    "internalType": "address",
                    "name": "previousOwner",
                    "type": "address"
                },
                {
                    "indexed": true,
                    "internalType": "address",
                    "name": "newOwner",
                    "type": "address"
                }
            ],
            "name": "OwnershipTransferred",
            "type": "event"
        },
        {
            "anonymous": false,
            "inputs": [
                {
                    "indexed": true,
                    "internalType": "address",
                    "name": "from",
                    "type": "address"
                },
                {
                    "indexed": true,
                    "internalType": "address",
                    "name": "to",
                    "type": "address"
                },
                {
                    "indexed": true,
                    "internalType": "uint256",
                    "name": "tokenId",
                    "type": "uint256"
                }
            ],
            "name": "Transfer",
            "type": "event"
        },
        {
            "inputs": [
                {
                    "internalType": "address",
                    "name": "owner",
                    "type": "address"
                },
                {
                    "internalType": "uint32",
                    "name": "recordType",
                    "type": "uint32"
                },
                {
                    "internalType": "string",
                    "name": "data",
                    "type": "string"
                }
            ],
            "name": "addRecord",
            "outputs": [],
            "stateMutability": "nonpayable",
            "type": "function"
        },
        {
            "inputs": [
                {
                    "internalType": "address",
                    "name": "to",
                    "type": "address"
                },
                {
                    "internalType": "uint256",
                    "name": "tokenId",
                    "type": "uint256"
                }
            ],
            "name": "approve",
            "outputs": [],
            "stateMutability": "nonpayable",
            "type": "function"
        },
        {
            "inputs": [
                {
                    "internalType": "address",
                    "name": "_operator",
                    "type": "address"
                }
            ],
            "name": "approveOperator",
            "outputs": [],
            "stateMutability": "nonpayable",
            "type": "function"
        },
        {
            "inputs": [
                {
                    "internalType": "address",
                    "name": "owner",
                    "type": "address"
                }
            ],
            "name": "balanceOf",
            "outputs": [
                {
                    "internalType": "uint256",
                    "name": "",
                    "type": "uint256"
                }
            ],
            "stateMutability": "view",
            "type": "function"
        },
        {
            "inputs": [],
            "name": "burn",
            "outputs": [],
            "stateMutability": "nonpayable",
            "type": "function"
        },
        {
            "inputs": [
                {
                    "internalType": "address",
                    "name": "_patient",
                    "type": "address"
                },
                {
                    "components": [
                        {
                            "internalType": "uint64",
                            "name": "infoType",
                            "type": "uint64"
                        },
                        {
                            "internalType": "string",
                            "name": "data",
                            "type": "string"
                        }
                    ],
                    "internalType": "struct GEHR.Info[]",
                    "name": "_info",
                    "type": "tuple[]"
                }
            ],
            "name": "changeInfo",
            "outputs": [],
            "stateMutability": "nonpayable",
            "type": "function"
        },
        {
            "inputs": [],
            "name": "erc20Contract",
            "outputs": [
                {
                    "internalType": "address",
                    "name": "",
                    "type": "address"
                }
            ],
            "stateMutability": "view",
            "type": "function"
        },
        {
            "inputs": [
                {
                    "internalType": "uint256",
                    "name": "tokenId",
                    "type": "uint256"
                }
            ],
            "name": "getApproved",
            "outputs": [
                {
                    "internalType": "address",
                    "name": "",
                    "type": "address"
                }
            ],
            "stateMutability": "view",
            "type": "function"
        },
        {
            "inputs": [],
            "name": "getOperatorBalance",
            "outputs": [
                {
                    "internalType": "uint256",
                    "name": "",
                    "type": "uint256"
                }
            ],
            "stateMutability": "view",
            "type": "function"
        },
        {
            "inputs": [
                {
                    "internalType": "address",
                    "name": "_patient",
                    "type": "address"
                }
            ],
            "name": "getPacient",
            "outputs": [
                {
                    "components": [
                        {
                            "internalType": "uint64",
                            "name": "infoType",
                            "type": "uint64"
                        },
                        {
                            "internalType": "string",
                            "name": "data",
                            "type": "string"
                        }
                    ],
                    "internalType": "struct GEHR.Info[]",
                    "name": "infos",
                    "type": "tuple[]"
                },
                {
                    "components": [
                        {
                            "internalType": "uint64",
                            "name": "recordType",
                            "type": "uint64"
                        },
                        {
                            "internalType": "address",
                            "name": "doctorAddr",
                            "type": "address"
                        },
                        {
                            "internalType": "uint64",
                            "name": "addedAt",
                            "type": "uint64"
                        },
                        {
                            "internalType": "string",
                            "name": "data",
                            "type": "string"
                        }
                    ],
                    "internalType": "struct GEHR.Record[]",
                    "name": "records",
                    "type": "tuple[]"
                },
                {
                    "internalType": "uint64",
                    "name": "addedAt",
                    "type": "uint64"
                },
                {
                    "internalType": "uint64",
                    "name": "lastChange",
                    "type": "uint64"
                }
            ],
            "stateMutability": "view",
            "type": "function"
        },
        {
            "inputs": [
                {
                    "internalType": "address",
                    "name": "owner",
                    "type": "address"
                },
                {
                    "internalType": "address",
                    "name": "operator",
                    "type": "address"
                }
            ],
            "name": "isApprovedForAll",
            "outputs": [
                {
                    "internalType": "bool",
                    "name": "",
                    "type": "bool"
                }
            ],
            "stateMutability": "view",
            "type": "function"
        },
        {
            "inputs": [
                {
                    "internalType": "address",
                    "name": "owner",
                    "type": "address"
                },
                {
                    "internalType": "address",
                    "name": "_operator",
                    "type": "address"
                }
            ],
            "name": "isApprovedOperator",
            "outputs": [
                {
                    "internalType": "bool",
                    "name": "",
                    "type": "bool"
                }
            ],
            "stateMutability": "view",
            "type": "function"
        },
        {
            "inputs": [
                {
                    "components": [
                        {
                            "internalType": "uint64",
                            "name": "infoType",
                            "type": "uint64"
                        },
                        {
                            "internalType": "string",
                            "name": "data",
                            "type": "string"
                        }
                    ],
                    "internalType": "struct GEHR.Info[]",
                    "name": "infos",
                    "type": "tuple[]"
                }
            ],
            "name": "mint",
            "outputs": [],
            "stateMutability": "nonpayable",
            "type": "function"
        },
        {
            "inputs": [],
            "name": "name",
            "outputs": [
                {
                    "internalType": "string",
                    "name": "",
                    "type": "string"
                }
            ],
            "stateMutability": "view",
            "type": "function"
        },
        {
            "inputs": [],
            "name": "owner",
            "outputs": [
                {
                    "internalType": "address",
                    "name": "",
                    "type": "address"
                }
            ],
            "stateMutability": "view",
            "type": "function"
        },
        {
            "inputs": [
                {
                    "internalType": "uint256",
                    "name": "tokenId",
                    "type": "uint256"
                }
            ],
            "name": "ownerOf",
            "outputs": [
                {
                    "internalType": "address",
                    "name": "",
                    "type": "address"
                }
            ],
            "stateMutability": "view",
            "type": "function"
        },
        {
            "inputs": [
                {
                    "internalType": "uint256",
                    "name": "index",
                    "type": "uint256"
                }
            ],
            "name": "patientOfOperatorByIndex",
            "outputs": [
                {
                    "components": [
                        {
                            "internalType": "uint64",
                            "name": "infoType",
                            "type": "uint64"
                        },
                        {
                            "internalType": "string",
                            "name": "data",
                            "type": "string"
                        }
                    ],
                    "internalType": "struct GEHR.Info[]",
                    "name": "infos",
                    "type": "tuple[]"
                },
                {
                    "components": [
                        {
                            "internalType": "uint64",
                            "name": "recordType",
                            "type": "uint64"
                        },
                        {
                            "internalType": "address",
                            "name": "doctorAddr",
                            "type": "address"
                        },
                        {
                            "internalType": "uint64",
                            "name": "addedAt",
                            "type": "uint64"
                        },
                        {
                            "internalType": "string",
                            "name": "data",
                            "type": "string"
                        }
                    ],
                    "internalType": "struct GEHR.Record[]",
                    "name": "records",
                    "type": "tuple[]"
                },
                {
                    "internalType": "uint64",
                    "name": "addedAt",
                    "type": "uint64"
                },
                {
                    "internalType": "uint64",
                    "name": "lastChange",
                    "type": "uint64"
                }
            ],
            "stateMutability": "view",
            "type": "function"
        },
        {
            "inputs": [],
            "name": "renounceOwnership",
            "outputs": [],
            "stateMutability": "nonpayable",
            "type": "function"
        },
        {
            "inputs": [
                {
                    "internalType": "address",
                    "name": "from",
                    "type": "address"
                },
                {
                    "internalType": "address",
                    "name": "to",
                    "type": "address"
                },
                {
                    "internalType": "uint256",
                    "name": "tokenId",
                    "type": "uint256"
                }
            ],
            "name": "safeTransferFrom",
            "outputs": [],
            "stateMutability": "nonpayable",
            "type": "function"
        },
        {
            "inputs": [
                {
                    "internalType": "address",
                    "name": "from",
                    "type": "address"
                },
                {
                    "internalType": "address",
                    "name": "to",
                    "type": "address"
                },
                {
                    "internalType": "uint256",
                    "name": "tokenId",
                    "type": "uint256"
                },
                {
                    "internalType": "bytes",
                    "name": "data",
                    "type": "bytes"
                }
            ],
            "name": "safeTransferFrom",
            "outputs": [],
            "stateMutability": "nonpayable",
            "type": "function"
        },
        {
            "inputs": [
                {
                    "internalType": "address",
                    "name": "operator",
                    "type": "address"
                },
                {
                    "internalType": "bool",
                    "name": "approved",
                    "type": "bool"
                }
            ],
            "name": "setApprovalForAll",
            "outputs": [],
            "stateMutability": "nonpayable",
            "type": "function"
        },
        {
            "inputs": [
                {
                    "internalType": "address",
                    "name": "_address",
                    "type": "address"
                }
            ],
            "name": "setErc20Contract",
            "outputs": [],
            "stateMutability": "nonpayable",
            "type": "function"
        },
        {
            "inputs": [
                {
                    "internalType": "bytes4",
                    "name": "interfaceId",
                    "type": "bytes4"
                }
            ],
            "name": "supportsInterface",
            "outputs": [
                {
                    "internalType": "bool",
                    "name": "",
                    "type": "bool"
                }
            ],
            "stateMutability": "view",
            "type": "function"
        },
        {
            "inputs": [],
            "name": "symbol",
            "outputs": [
                {
                    "internalType": "string",
                    "name": "",
                    "type": "string"
                }
            ],
            "stateMutability": "view",
            "type": "function"
        },
        {
            "inputs": [
                {
                    "internalType": "uint256",
                    "name": "tokenId",
                    "type": "uint256"
                }
            ],
            "name": "tokenURI",
            "outputs": [
                {
                    "internalType": "string",
                    "name": "",
                    "type": "string"
                }
            ],
            "stateMutability": "view",
            "type": "function"
        },
        {
            "inputs": [],
            "name": "totalSupply",
            "outputs": [
                {
                    "internalType": "uint256",
                    "name": "",
                    "type": "uint256"
                }
            ],
            "stateMutability": "view",
            "type": "function"
        },
        {
            "inputs": [
                {
                    "internalType": "address",
                    "name": "from",
                    "type": "address"
                },
                {
                    "internalType": "address",
                    "name": "to",
                    "type": "address"
                },
                {
                    "internalType": "uint256",
                    "name": "tokenId",
                    "type": "uint256"
                }
            ],
            "name": "transferFrom",
            "outputs": [],
            "stateMutability": "nonpayable",
            "type": "function"
        },
        {
            "inputs": [
                {
                    "internalType": "address",
                    "name": "newOwner",
                    "type": "address"
                }
            ],
            "name": "transferOwnership",
            "outputs": [],
            "stateMutability": "nonpayable",
            "type": "function"
        }
    ],
    "bytecode": "60806040523461036657604080519081016001600160401b0381118282101761027c576040908152601e82527f476c6f62616c20456c6574726f6e6963204865616c7468205265636f72640000602083015280519081016001600160401b0381118282101761027c57604052600481526323a2a42960e11b602082015281516001600160401b03811161027c575f54600181811c9116801561035c575b602082101461025e57601f81116102fa575b50602092601f821160011461029b57928192935f92610290575b50508160011b915f199060031b1c1916175f555b80516001600160401b03811161027c57600154600181811c91168015610272575b602082101461025e57601f81116101fb575b50602091601f821160011461019b579181925f92610190575b50508160011b915f199060031b1c1916176001555b60068054336001600160a01b03198216811790925560405191906001600160a01b03167f8be0079c531659141344cd1fd0a4f28419497f9722a3daafe3b4186f6b6457e05f80a3612761908161036b8239f35b015190505f80610128565b601f1982169260015f52805f20915f5b8581106101e3575083600195106101cb575b505050811b0160015561013d565b01515f1960f88460031b161c191690555f80806101bd565b919260206001819286850151815501940192016101ab565b60015f527fb10e2d527612073b26eecdfd717e6a320cf44b4afac2b0732d9fcbe2b7fa0cf6601f830160051c81019160208410610254575b601f0160051c01905b818110610249575061010f565b5f815560010161023c565b9091508190610233565b634e487b7160e01b5f52602260045260245ffd5b90607f16906100fd565b634e487b7160e01b5f52604160045260245ffd5b015190505f806100c8565b601f198216935f8052805f20915f5b8681106102e257508360019596106102ca575b505050811b015f556100dc565b01515f1960f88460031b161c191690555f80806102bd565b919260206001819286850151815501940192016102aa565b5f80527f290decd9548b62a8d60345a988386fc84ba6bc95484008f6362f93160ef3e563601f830160051c81019160208410610352575b601f0160051c01905b81811061034757506100ae565b5f815560010161033a565b9091508190610331565b90607f169061009c565b5f80fdfe6080806040526004361015610012575f80fd5b5f905f3560e01c90816301ffc9a71461173b5750806306fdde0314611674578063081812fc14611656578063095ea7b3146114d057806318160ddd146114b35780631914e0c1146110655780631a1794511461102f57806323b872dd14611006578063242cae9f14610f145780633240c17414610dd15780633f468c8714610b9c57806342842e0e14610b7257806344df8e70146109305780636352211e146108ff578063681d96291461088757806370a08231146107f1578063715018a6146107945780637604732914610691578063796c25b61461066a5780638da5cb5b1461064157806395d89b411461055e578063a22cb4651461048e578063a8f6c91314610465578063b88d4fde146103fe578063c87b56dd1461038a578063e985e9c514610332578063f2fde38b146102695763f416cc6214610152575f80fd5b346102665760203660031901126102665761016b6117ca565b610173612504565b60018060a01b0316806020836004600c54846001600160601b0360a01b821617600c5582604051958694859363881ce1c360e01b855216175af190811561025b57839161021c575b50156101d7576001600160601b0360a01b600d541617600d5580f35b60405162461bcd60e51b815260206004820152601d60248201527f474548523a204745485220546f6b656e206973206e6f742076616c69640000006044820152606490fd5b90506020813d602011610253575b816102376020938361182c565b8101031261024f5751801515810361024f575f6101bb565b8280fd5b3d915061022a565b6040513d85823e3d90fd5b80fd5b5034610266576020366003190112610266576102836117ca565b61028b612504565b6001600160a01b031680156102de57600680546001600160a01b0319811683179091556001600160a01b03167f8be0079c531659141344cd1fd0a4f28419497f9722a3daafe3b4186f6b6457e05f80a380f35b60405162461bcd60e51b815260206004820152602660248201527f4f776e61626c653a206e6577206f776e657220697320746865207a65726f206160448201526564647265737360d01b6064820152608490fd5b503461026657604036600319011261026657604061034e6117ca565b916103576117e0565b9260018060a01b031681526005602052209060018060a01b03165f52602052602060ff60405f2054166040519015158152f35b5034610266576020366003190112610266576004355f908152600260205260409020546103c1906001600160a01b03161515611f93565b806040516103d060208261182c565b52506103fa6040516103e360208261182c565b5f81526040519182916020835260208301906117a6565b0390f35b5034610266576080366003190112610266576104186117ca565b6104206117e0565b606435916001600160401b03831161046157366023840112156104615761045461045e93369060248160040135910161187f565b9160443591612144565b80f35b8380fd5b5034610266578060031936011261026657600c546040516001600160a01b039091168152602090f35b5034610266576040366003190112610266576104a86117ca565b6024359081151580920361024f576001600160a01b03169033821461051957338352600560205260408320825f5260205260405f2060ff1981541660ff83161790556040519081527f17307eab39ab6107e8899845ad3d59bd9653f200f220920489ca2b5937696c3160203392a380f35b60405162461bcd60e51b815260206004820152601960248201527f4552433732313a20617070726f766520746f2063616c6c6572000000000000006044820152606490fd5b503461026657806003193601126102665760405190806001549061058182611b04565b808552916001811690811561061a57506001146105bd575b6103fa846105a98186038261182c565b6040519182916020835260208301906117a6565b600181527fb10e2d527612073b26eecdfd717e6a320cf44b4afac2b0732d9fcbe2b7fa0cf6939250905b808210610600575090915081016020016105a982610599565b9192600181602092548385880101520191019092916105e7565b60ff191660208087019190915292151560051b850190920192506105a99150839050610599565b50346102665780600319360112610266576006546040516001600160a01b039091168152602090f35b50346102665780600319360112610266576040602091338152600b83522054604051908152f35b503461026657602036600319011261026657600435338252600b602052604082205481101561074457338252600a60209081526040808420928452918152818320546001600160a01b03168352600890528120545f19810191908211610730576107036106fd83611c18565b50612001565b80516103fa6020830151926001600160401b036060816040840151169201511690604051948594856119d9565b634e487b7160e01b81526011600452602490fd5b60405162461bcd60e51b815260206004820152602260248201527f474548523a206f70657261746f7220696e646578206f7574206f6620626f756e604482015261647360f01b6064820152608490fd5b50346102665780600319360112610266576107ad612504565b600680546001600160a01b0319811690915581906001600160a01b03167f8be0079c531659141344cd1fd0a4f28419497f9722a3daafe3b4186f6b6457e08280a380f35b5034610266576020366003190112610266576001600160a01b036108136117ca565b168015610830578160409160209352600383522054604051908152f35b60405162461bcd60e51b815260206004820152602960248201527f4552433732313a2061646472657373207a65726f206973206e6f7420612076616044820152683634b21037bbb732b960b91b6064820152608490fd5b5034610266576020366003190112610266576108a16117ca565b3380835260086020526001600160a01b038216916108c99183149081156108ed575b50611f47565b8152600860205260408120545f19810191908211610730576107036106fd83611c18565b6108f991503390611e9a565b5f6108c3565b503461026657602036600319011261026657602061091e600435611fdf565b6040516001600160a01b039091168152f35b503461026657806003193601126102665761094961218c565b338152600860205260408120548015610b1c575f198101818111610b085761097090611c18565b610af4578290805482825580610a92575b506001810180549083815581610a34575b50506002015533825260086020528160408120556109af81611fdf565b50816109ba82611fdf565b8282526004602052604082206001600160601b0360a01b815416905560018060a01b03168082526003602052604082205f1981540190558282526002602052604082206001600160601b0360a01b81541690557fddf252ad1be2c89b69c2b068fc378daa952ba7f163c4a11628f55a4df523b3ef8280a480f35b9080929350600302916003830403610a7e578452602084208492918101905b818110156109925760039192938155856001820155610a7460028201611c4a565b0190849291610a53565b634e487b7160e01b85526011600452602485fd5b9091506001600160ff1b0381168103610ae0578184526020842084929160011b8101905b818110610ac35750610981565b60029192938155610ad660018201611c4a565b0190849291610ab6565b634e487b7160e01b84526011600452602484fd5b634e487b7160e01b83526004839052602483fd5b634e487b7160e01b83526011600452602483fd5b60405162461bcd60e51b815260206004820152602860248201527f45524332303a20746f6b656e206e6f742065786973747320666f722074686973604482015267206164647265737360c01b6064820152608490fd5b50346102665761045e610b843661199f565b9060405192610b9460208561182c565b858452612144565b503461026657604036600319011261026657610bb66117ca565b6024356001600160401b03811161024f57610bd59036906004016118d3565b33808452600860205290916001600160a01b03811691610bff919083149081156108ed5750611f47565b610c0761218c565b8252600860205260408220545f198101908111610b0857610c2790611c18565b506002810180546fffffffffffffffff000000000000000019164260401b67ffffffffffffffff60401b16179055906020815191610c658385611c98565b019183526020832083925b828410610c7b578480f35b80516001600160401b0380825116166001600160401b03198454161783556020600184019101518051906001600160401b038211610dbd57610cbd8354611b04565b601f8111610d82575b50602090601f8311600114610d195792610cff83602094600197946002978d92610d0e575b50508160011b915f199060031b1c19161790565b90555b01920193019290610c70565b015190505f80610ceb565b8389528189209190601f1984168a5b818110610d6a575093600196936002969388938360209810610d52575b505050811b019055610d02565b01515f1960f88460031b161c191690555f8080610d45565b92936020600181928786015181550195019301610d28565b610dad90848a5260208a20601f850160051c81019160208610610db3575b601f0160051c0190611c34565b5f610cc6565b9091508190610da0565b634e487b7160e01b88526041600452602488fd5b34610f10576060366003190112610f1057610dea6117ca565b6024359063ffffffff8216809203610f10576044356001600160401b038111610f1057610e1e610e3f9136906004016118b5565b91335f5260086020523360018060a01b03821614908115610efe5750611f47565b335f52600860205260405f2054905f198201918211610eea57610e63600192611c18565b509060405193610e72856117f6565b84523360208501526001600160401b0342166040850152606084015201908154600160401b811015610ed65760018101808455811015610ec257610ec0925f52600360205f20910201611d0a565b005b634e487b7160e01b5f52603260045260245ffd5b634e487b7160e01b5f52604160045260245ffd5b634e487b7160e01b5f52601160045260245ffd5b610f0a91503390611e9a565b846108c3565b5f80fd5b34610f10576020366003190112610f1057610f2d6117ca565b610f38331515611e4f565b6001600160a01b03168015610fb5575f818152600b6020908152604080832054600a835281842081855290925290912080546001600160a01b0319163317905560018101908110610eea57815f52600b60205260405f2055335f52600960205260405f20905f5260205260405f20600160ff198254161790555f80f35b60405162461bcd60e51b815260206004820152602360248201527f45524332303a206f70657261746f72206e65656420746f20626520696e666f726044820152621b595960ea1b6064820152608490fd5b34610f1057610ec06110173661199f565b9161102a6110258433612363565b611ee5565b6123d8565b34610f10576040366003190112610f1057602061105b61104d6117ca565b6110556117e0565b90611e9a565b6040519015158152f35b34610f10576020366003190112610f10576004356001600160401b038111610f10576110959036906004016118d3565b61109d61218c565b335f52600860205260405f205461145957604051426001600160401b0316916110c5826117f6565b8152602081019060608252604081019183835260608201938452600754600160401b811015610ed6578060016110fe9201600755611c18565b929092611446575160208151916111158386611c98565b0190835f5260205f205f925b82841061130f575050505060018201905190815191600160401b8311610ed65781548383558084106112bb575b50602001905f5260205f205f915b83831061129d578551600286018054895167ffffffffffffffff60401b60409190911b166001600160401b039093166fffffffffffffffffffffffffffffffff199091161791909117905560075460018101809111610eea573315611259575f818152600260205260409020546111df906001600160a01b031615155b15612317565b5f81815260026020526040902054611201906001600160a01b031615156111d9565b335f818152600360209081526040808320805460010190558483526002909152812080546001600160a01b031916831790557fddf252ad1be2c89b69c2b068fc378daa952ba7f163c4a11628f55a4df523b3ef8180a4005b606460405162461bcd60e51b815260206004820152602060248201527f4552433732313a206d696e7420746f20746865207a65726f20616464726573736044820152fd5b60036020826112af6001945186611d0a565b0192019201919061115c565b80600302906003820403610eea5783600302600381048503610eea57835f5260205f2091820191015b8181106112f1575061114e565b805f600392555f600182015561130960028201611c4a565b016112e4565b80516001600160401b0380825116166001600160401b03198454161783556020600184019101518051906001600160401b038211610ed6576113518354611b04565b601f8111611416575b50602090601f83116001146113ac579261139283602094600197946002975f926113a15750508160011b915f199060031b1c19161790565b90555b01920193019290611121565b015190508f80610ceb565b90601f19831691845f52815f20925f5b8181106113fe5750936001969360029693889383602098106113e6575b505050811b019055611395565b01515f1960f88460031b161c191690558e80806113d9565b929360206001819287860151815501950193016113bc565b61144090845f5260205f20601f850160051c81019160208610610db357601f0160051c0190611c34565b8b61135a565b634e487b7160e01b5f525f60045260245ffd5b60405162461bcd60e51b815260206004820152602c60248201527f45524332303a20746f6b656e20616c72656164792065786973747320666f722060448201526b74686973206164647265737360a01b6064820152608490fd5b34610f10575f366003190112610f10576020600754604051908152f35b34610f10576040366003190112610f10576114e96117ca565b602435906001600160a01b036114fe83611fdf565b6001600160a01b039092169116818114611607578033149081156115e3575b5015611578575f82815260046020526040902080546001600160a01b031916821790556001600160a01b0361155183611fdf565b167f8c5be1e5ebec7d5bd14f71427d1e84f3dd0314c0f7b2291e5b200ac8c7c3b9255f80a4005b60405162461bcd60e51b815260206004820152603d60248201527f4552433732313a20617070726f76652063616c6c6572206973206e6f7420746f60448201527f6b656e206f776e6572206f7220617070726f76656420666f7220616c6c0000006064820152608490fd5b5f90815260056020908152604080832033845290915290205460ff1690508361151d565b60405162461bcd60e51b815260206004820152602160248201527f4552433732313a20617070726f76616c20746f2063757272656e74206f776e656044820152603960f91b6064820152608490fd5b34610f10576020366003190112610f1057602061091e600435611bdc565b34610f10575f366003190112610f10576040515f5f5461169381611b04565b808452906001811690811561171757506001146116bb575b6103fa836105a98185038261182c565b5f8080527f290decd9548b62a8d60345a988386fc84ba6bc95484008f6362f93160ef3e563939250905b8082106116fd575090915081016020016105a96116ab565b9192600181602092548385880101520191019092916116e5565b60ff191660208086019190915291151560051b840190910191506105a990506116ab565b34610f10576020366003190112610f10576004359063ffffffff60e01b8216809203610f10576020916380ac58cd60e01b8114908115611795575b8115611784575b5015158152f35b6301ffc9a760e01b1490508361177d565b635b5e139f60e01b81149150611776565b805180835260209291819084018484015e5f828201840152601f01601f1916010190565b600435906001600160a01b0382168203610f1057565b602435906001600160a01b0382168203610f1057565b608081019081106001600160401b03821117610ed657604052565b604081019081106001600160401b03821117610ed657604052565b90601f801991011681019081106001600160401b03821117610ed657604052565b6001600160401b038111610ed65760051b60200190565b6001600160401b038111610ed657601f01601f191660200190565b92919261188b82611864565b91611899604051938461182c565b829481845281830111610f10578281602093845f960137010152565b9080601f83011215610f10578160206118d09335910161187f565b90565b9080601f83011215610f10578135916118eb8361184d565b926118f9604051948561182c565b80845260208085019160051b83010191838311610f105760208101915b83831061192557505050505090565b82356001600160401b038111610f10578201906040828703601f190112610f10576040519061195382611811565b60208301356001600160401b0381168103610f105782526040830135916001600160401b038311610f1057611990886020809695819601016118b5565b83820152815201920191611916565b6060906003190112610f10576004356001600160a01b0381168103610f1057906024356001600160a01b0381168103610f10579060443590565b92949391906080840160808552815180915260a0850190602060a08260051b8801019301915f905b828210611abf57505050508381036020850152815180825260208201916020808360051b8301019401925f915b838310611a545750505050506060916001600160401b0380929616604085015216910152565b9091929394602080611ab0600193601f19868203018752608060608b516001600160401b038151168452878060a01b038682015116868501526001600160401b03604082015116604085015201519181606082015201906117a6565b97019301930191939290611a2e565b90919293602080611af6600193609f198c82030186526040838a516001600160401b038151168452015191818582015201906117a6565b960192019201909291611a01565b90600182811c92168015611b32575b6020831014611b1e57565b634e487b7160e01b5f52602260045260245ffd5b91607f1691611b13565b9060405191825f825492611b4f84611b04565b8084529360018116908115611bba5750600114611b76575b50611b749250038361182c565b565b90505f9291925260205f20905f915b818310611b9e575050906020611b74928201015f611b67565b6020919350806001915483858901015201910190918492611b85565b905060209250611b7494915060ff191682840152151560051b8201015f611b67565b5f81815260026020526040902054611bfe906001600160a01b03161515611f93565b5f908152600460205260409020546001600160a01b031690565b600754811015610ec25760075f52600360205f20910201905f90565b818110611c3f575050565b5f8155600101611c34565b611c548154611b04565b9081611c5e575050565b81601f5f9311600114611c6f575055565b81835260208320611c8b91601f0160051c810190600101611c34565b8082528160208120915555565b600160401b8211610ed657805490828155818310611cb557505050565b6001600160ff1b0382168203610eea576001600160ff1b0383168303610eea575f5260205f209060011b81019160011b015b818110611cf2575050565b805f60029255611d0460018201611c4a565b01611ce7565b8151815460208401516001600160e01b03199091166001600160401b0392831617604091821b68010000000000000000600160e01b031617835583015160018301805467ffffffffffffffff1916918316919091179055606092909201518051909392600292909201918111610ed657611d848254611b04565b601f8111611e1f575b506020601f8211600114611dc1578190611dbd9394955f92610d0e5750508160011b915f199060031b1c19161790565b9055565b601f19821690835f52805f20915f5b818110611e0757509583600195969710611def575b505050811b019055565b01515f1960f88460031b161c191690555f8080611de5565b9192602060018192868b015181550194019201611dd0565b611e4990835f5260205f20601f840160051c81019160208510610db357601f0160051c0190611c34565b5f611d8d565b15611e5657565b606460405162461bcd60e51b815260206004820152602060248201527f45524332303a206f776e6572206e65656420746f20626520696e666f726d65646044820152fd5b611ea5331515611e4f565b611eb96001600160a01b0383161515611e4f565b60018060a01b03165f52600960205260405f209060018060a01b03165f5260205260ff60405f20541690565b15611eec57565b60405162461bcd60e51b815260206004820152602d60248201527f4552433732313a2063616c6c6572206973206e6f7420746f6b656e206f776e6560448201526c1c881bdc88185c1c1c9bdd9959609a1b6064820152608490fd5b15611f4e57565b60405162461bcd60e51b815260206004820152601e60248201527f474548523a206f70657261746f72206973206e6f7420617070726f76656400006044820152606490fd5b15611f9a57565b60405162461bcd60e51b815260206004820152601860248201527f4552433732313a20696e76616c696420746f6b656e20494400000000000000006044820152606490fd5b5f908152600260205260409020546001600160a01b03166118d0811515611f93565b9060405161200e816117f6565b8092805461201b8161184d565b90612029604051928361182c565b80825260208201835f5260205f205f915b838310612107575050505082526001810180546120568161184d565b91612064604051938461182c565b81835260208301905f5260205f205f915b8383106120a6575050505060026060926001600160401b039260208601520154818116604085015260401c16910152565b600360206001926040516120b9816117f6565b85546001600160401b0381168252858060a01b039060401c16838201526001600160401b03858701541660408201526120f460028701611b3c565b6060820152815201920192019190612075565b6002602060019260405161211a81611811565b6001600160401b038654168152612132858701611b3c565b8382015281520192019201919061203a565b906121689392916121586110258433612363565b6121638383836123d8565b612609565b1561216f57565b60405162461bcd60e51b8152806121886004820161255c565b0390fd5b612197331515611e4f565b600c546001600160a01b0316156122d257600d546040516370a0823160e01b81523360048201526001600160a01b0390911690602081602481855afa801561223a575f90612298575b67016345785d8a000091501061224557803b15610f10575f8091604460405180948193632770a7eb60e21b835233600484015267016345785d8a000060248401525af1801561223a576122305750565b5f611b749161182c565b6040513d5f823e3d90fd5b60405162461bcd60e51b815260206004820152602560248201527f474548523a207472616e7366657220616d6f756e7420657863656564732062616044820152646c616e636560d81b6064820152608490fd5b506020813d6020116122ca575b816122b26020938361182c565b81010312610f105767016345785d8a000090516121e0565b3d91506122a5565b60405162461bcd60e51b815260206004820152601e60248201527f45524332303a20636f696e20636f6e7472616374206e6f7420736574757000006044820152606490fd5b1561231e57565b60405162461bcd60e51b815260206004820152601c60248201527f4552433732313a20746f6b656e20616c7265616479206d696e746564000000006044820152606490fd5b906001600160a01b0361237582611fdf565b6001600160a01b03909316921682811492919083156123b5575b50821561239b57505090565b9091506001600160a01b03906123b090611bdc565b161490565b9092505f52600560205260405f20815f5260205260ff60405f205416915f61238f565b906123e161218c565b6124016123ed84611fdf565b6001600160a01b03938416931683146125af565b6001600160a01b03169081156124b35761242d816001600160a01b0361242686611fdf565b16146125af565b825f52600460205260405f206001600160601b0360a01b8154169055805f52600360205260405f205f198154019055815f52600360205260405f2060018154019055825f52600260205260405f20826001600160601b0360a01b8254161790557fddf252ad1be2c89b69c2b068fc378daa952ba7f163c4a11628f55a4df523b3ef5f80a4565b60405162461bcd60e51b8152602060048201526024808201527f4552433732313a207472616e7366657220746f20746865207a65726f206164646044820152637265737360e01b6064820152608490fd5b6006546001600160a01b0316330361251857565b606460405162461bcd60e51b815260206004820152602060248201527f4f776e61626c653a2063616c6c6572206973206e6f7420746865206f776e65726044820152fd5b60809060208152603260208201527f4552433732313a207472616e7366657220746f206e6f6e20455243373231526560408201527131b2b4bb32b91034b6b83632b6b2b73a32b960711b60608201520190565b156125b657565b60405162461bcd60e51b815260206004820152602560248201527f4552433732313a207472616e736665722066726f6d20696e636f72726563742060448201526437bbb732b960d91b6064820152608490fd5b919290803b1561272257612658935f60209460405196879586948593630a85bd0160e11b855233600486015260018060a01b0316602485015260448401526080606484015260848301906117a6565b03926001600160a01b03165af15f91816126dd575b506126c7573d156126c0573d61268281611864565b90612690604051928361182c565b81523d5f602083013e5b805190816126bb5760405162461bcd60e51b8152806121886004820161255c565b602001fd5b606061269a565b6001600160e01b031916630a85bd0160e11b1490565b9091506020813d60201161271a575b816126f96020938361182c565b81010312610f1057516001600160e01b031981168103610f1057905f61266d565b3d91506126ec565b5050505060019056fea2646970667358221220f1ee43421b38ec9ad2b7bddadb56f48f2de31bb0bb6336b7f8cc44fba000b5fe64736f6c634300081c0033",
    "sourcePath": "c:/Git/Projetos/GEHRCoin/Contracts/contracts/GEHR.sol",
    "compiler": {
        "name": "solc",
        "version": "0.8.28+commit.7893614a"
    },
    "functionHashes": {
        "addRecord(address,uint32,string)": "3240c174",
        "approve(address,uint256)": "095ea7b3",
        "approveOperator(address)": "242cae9f",
        "balanceOf(address)": "70a08231",
        "burn()": "44df8e70",
        "changeInfo(address,(uint64,string)[])": "3f468c87",
        "erc20Contract()": "a8f6c913",
        "getApproved(uint256)": "081812fc",
        "getOperatorBalance()": "796c25b6",
        "getPacient(address)": "681d9629",
        "isApprovedForAll(address,address)": "e985e9c5",
        "isApprovedOperator(address,address)": "1a179451",
        "mint((uint64,string)[])": "1914e0c1",
        "name()": "06fdde03",
        "owner()": "8da5cb5b",
        "ownerOf(uint256)": "6352211e",
        "patientOfOperatorByIndex(uint256)": "76047329",
        "renounceOwnership()": "715018a6",
        "safeTransferFrom(address,address,uint256)": "42842e0e",
        "safeTransferFrom(address,address,uint256,bytes)": "b88d4fde",
        "setApprovalForAll(address,bool)": "a22cb465",
        "setErc20Contract(address)": "f416cc62",
        "supportsInterface(bytes4)": "01ffc9a7",
        "symbol()": "95d89b41",
        "tokenURI(uint256)": "c87b56dd",
        "totalSupply()": "18160ddd",
        "transferFrom(address,address,uint256)": "23b872dd",
        "transferOwnership(address)": "f2fde38b"
    },
    "gasEstimates": {
        "creation": {
            "codeDepositCost": "2016200",
            "executionCost": "infinite",
            "totalCost": "infinite"
        },
        "external": {
            "addRecord(address,uint32,string)": "infinite",
            "approve(address,uint256)": "infinite",
            "approveOperator(address)": "73546",
            "balanceOf(address)": "2767",
            "burn()": "infinite",
            "changeInfo(address,(uint64,string)[])": "infinite",
            "erc20Contract()": "2772",
            "getApproved(uint256)": "4678",
            "getOperatorBalance()": "2722",
            "getPacient(address)": "infinite",
            "isApprovedForAll(address,address)": "3132",
            "isApprovedOperator(address,address)": "infinite",
            "mint((uint64,string)[])": "infinite",
            "name()": "infinite",
            "owner()": "2706",
            "ownerOf(uint256)": "2761",
            "patientOfOperatorByIndex(uint256)": "infinite",
            "renounceOwnership()": "28424",
            "safeTransferFrom(address,address,uint256)": "infinite",
            "safeTransferFrom(address,address,uint256,bytes)": "infinite",
            "setApprovalForAll(address,bool)": "26898",
            "setErc20Contract(address)": "infinite",
            "supportsInterface(bytes4)": "327",
            "symbol()": "infinite",
            "tokenURI(uint256)": "infinite",
            "totalSupply()": "2349",
            "transferFrom(address,address,uint256)": "infinite",
            "transferOwnership(address)": "28753"
        },
        "internal": {
            "_payTransaction()": "infinite",
            "_transfer(address,address,uint256)": "infinite"
        }
    }
}