{
    "contractName": "GEHRToken",
    "abi": [
        {
            "inputs": [],
            "stateMutability": "nonpayable",
            "type": "constructor"
        },
        {
            "anonymous": false,
            "inputs": [
                {
                    "indexed": true,
                    "internalType": "address",
                    "name": "owner",
                    "type": "address"
                },
                {
                    "indexed": true,
                    "internalType": "address",
                    "name": "spender",
                    "type": "address"
                },
                {
                    "indexed": false,
                    "internalType": "uint256",
                    "name": "value",
                    "type": "uint256"
                }
            ],
            "name": "Approval",
            "type": "event"
        },
        {
            "anonymous": false,
            "inputs": [
                {
                    "indexed": true,
                    "internalType": "address",
                    "name": "previousOwner",
                    "type": "address"
                },
                {
                    "indexed": true,
                    "internalType": "address",
                    "name": "newOwner",
                    "type": "address"
                }
            ],
            "name": "OwnershipTransferred",
            "type": "event"
        },
        {
            "anonymous": false,
            "inputs": [
                {
                    "indexed": true,
                    "internalType": "address",
                    "name": "from",
                    "type": "address"
                },
                {
                    "indexed": true,
                    "internalType": "address",
                    "name": "to",
                    "type": "address"
                },
                {
                    "indexed": false,
                    "internalType": "uint256",
                    "name": "value",
                    "type": "uint256"
                }
            ],
            "name": "Transfer",
            "type": "event"
        },
        {
            "inputs": [
                {
                    "internalType": "address",
                    "name": "owner",
                    "type": "address"
                },
                {
                    "internalType": "address",
                    "name": "spender",
                    "type": "address"
                }
            ],
            "name": "allowance",
            "outputs": [
                {
                    "internalType": "uint256",
                    "name": "",
                    "type": "uint256"
                }
            ],
            "stateMutability": "view",
            "type": "function"
        },
        {
            "inputs": [
                {
                    "internalType": "address",
                    "name": "spender",
                    "type": "address"
                },
                {
                    "internalType": "uint256",
                    "name": "amount",
                    "type": "uint256"
                }
            ],
            "name": "approve",
            "outputs": [
                {
                    "internalType": "bool",
                    "name": "",
                    "type": "bool"
                }
            ],
            "stateMutability": "nonpayable",
            "type": "function"
        },
        {
            "inputs": [
                {
                    "internalType": "address",
                    "name": "account",
                    "type": "address"
                }
            ],
            "name": "balanceOf",
            "outputs": [
                {
                    "internalType": "uint256",
                    "name": "",
                    "type": "uint256"
                }
            ],
            "stateMutability": "view",
            "type": "function"
        },
        {
            "inputs": [
                {
                    "internalType": "address",
                    "name": "_owner",
                    "type": "address"
                },
                {
                    "internalType": "uint256",
                    "name": "amount",
                    "type": "uint256"
                }
            ],
            "name": "burn",
            "outputs": [],
            "stateMutability": "nonpayable",
            "type": "function"
        },
        {
            "inputs": [],
            "name": "burnContract",
            "outputs": [
                {
                    "internalType": "address",
                    "name": "",
                    "type": "address"
                }
            ],
            "stateMutability": "view",
            "type": "function"
        },
        {
            "inputs": [],
            "name": "decimals",
            "outputs": [
                {
                    "internalType": "uint8",
                    "name": "",
                    "type": "uint8"
                }
            ],
            "stateMutability": "view",
            "type": "function"
        },
        {
            "inputs": [
                {
                    "internalType": "address",
                    "name": "spender",
                    "type": "address"
                },
                {
                    "internalType": "uint256",
                    "name": "subtractedValue",
                    "type": "uint256"
                }
            ],
            "name": "decreaseAllowance",
            "outputs": [
                {
                    "internalType": "bool",
                    "name": "",
                    "type": "bool"
                }
            ],
            "stateMutability": "nonpayable",
            "type": "function"
        },
        {
            "inputs": [
                {
                    "internalType": "address",
                    "name": "spender",
                    "type": "address"
                },
                {
                    "internalType": "uint256",
                    "name": "addedValue",
                    "type": "uint256"
                }
            ],
            "name": "increaseAllowance",
            "outputs": [
                {
                    "internalType": "bool",
                    "name": "",
                    "type": "bool"
                }
            ],
            "stateMutability": "nonpayable",
            "type": "function"
        },
        {
            "inputs": [],
            "name": "isGEHRToken",
            "outputs": [
                {
                    "internalType": "bool",
                    "name": "",
                    "type": "bool"
                }
            ],
            "stateMutability": "pure",
            "type": "function"
        },
        {
            "inputs": [],
            "name": "maxSupply",
            "outputs": [
                {
                    "internalType": "uint256",
                    "name": "",
                    "type": "uint256"
                }
            ],
            "stateMutability": "view",
            "type": "function"
        },
        {
            "inputs": [
                {
                    "internalType": "uint256",
                    "name": "amount",
                    "type": "uint256"
                }
            ],
            "name": "mint",
            "outputs": [
                {
                    "internalType": "bool",
                    "name": "",
                    "type": "bool"
                }
            ],
            "stateMutability": "nonpayable",
            "type": "function"
        },
        {
            "inputs": [],
            "name": "name",
            "outputs": [
                {
                    "internalType": "string",
                    "name": "",
                    "type": "string"
                }
            ],
            "stateMutability": "view",
            "type": "function"
        },
        {
            "inputs": [],
            "name": "owner",
            "outputs": [
                {
                    "internalType": "address",
                    "name": "",
                    "type": "address"
                }
            ],
            "stateMutability": "view",
            "type": "function"
        },
        {
            "inputs": [],
            "name": "renounceOwnership",
            "outputs": [],
            "stateMutability": "nonpayable",
            "type": "function"
        },
        {
            "inputs": [
                {
                    "internalType": "address",
                    "name": "_address",
                    "type": "address"
                }
            ],
            "name": "setBurnContract",
            "outputs": [],
            "stateMutability": "nonpayable",
            "type": "function"
        },
        {
            "inputs": [],
            "name": "symbol",
            "outputs": [
                {
                    "internalType": "string",
                    "name": "",
                    "type": "string"
                }
            ],
            "stateMutability": "view",
            "type": "function"
        },
        {
            "inputs": [],
            "name": "totalSupply",
            "outputs": [
                {
                    "internalType": "uint256",
                    "name": "",
                    "type": "uint256"
                }
            ],
            "stateMutability": "view",
            "type": "function"
        },
        {
            "inputs": [
                {
                    "internalType": "address",
                    "name": "to",
                    "type": "address"
                },
                {
                    "internalType": "uint256",
                    "name": "amount",
                    "type": "uint256"
                }
            ],
            "name": "transfer",
            "outputs": [
                {
                    "internalType": "bool",
                    "name": "",
                    "type": "bool"
                }
            ],
            "stateMutability": "nonpayable",
            "type": "function"
        },
        {
            "inputs": [
                {
                    "internalType": "address",
                    "name": "from",
                    "type": "address"
                },
                {
                    "internalType": "address",
                    "name": "to",
                    "type": "address"
                },
                {
                    "internalType": "uint256",
                    "name": "amount",
                    "type": "uint256"
                }
            ],
            "name": "transferFrom",
            "outputs": [
                {
                    "internalType": "bool",
                    "name": "",
                    "type": "bool"
                }
            ],
            "stateMutability": "nonpayable",
            "type": "function"
        },
        {
            "inputs": [
                {
                    "internalType": "address",
                    "name": "newOwner",
                    "type": "address"
                }
            ],
            "name": "transferOwnership",
            "outputs": [],
            "stateMutability": "nonpayable",
            "type": "function"
        }
    ],
    "bytecode": "60806040523461043457604080519081016001600160401b03811182821017610347576040908152601082526f11dbd89b1a5b8812195c9bc814dbdd5b60821b602083015280519081016001600160401b03811182821017610347576040526004815263474f424960e01b602082015281516001600160401b03811161034757600354600181811c9116801561042a575b602082101461032957601f81116103c7575b50602092601f821160011461036657928192935f9261035b575b50508160011b915f199060031b1c1916176003555b80516001600160401b03811161034757600454600181811c9116801561033d575b602082101461032957601f81116102c6575b50602091601f8211600114610266579181925f9261025b575b50508160011b915f199060031b1c1916176004555b60058054336001600160a01b0319821681179092556001600160a01b03167f8be0079c531659141344cd1fd0a4f28419497f9722a3daafe3b4186f6b6457e05f80a3670de0b6b3a764000069152d02c7e14af680000033156102165760025481810180911161020257600255335f525f60205260405f208181540190556040519081525f7fddf252ad1be2c89b69c2b068fc378daa952ba7f163c4a11628f55a4df523b3ef60203393a3806311e1a30002906311e1a30082040361020257600655604051610e8990816104398239f35b634e487b7160e01b5f52601160045260245ffd5b60405162461bcd60e51b815260206004820152601f60248201527f45524332303a206d696e7420746f20746865207a65726f2061646472657373006044820152606490fd5b015190505f8061011d565b601f1982169260045f52805f20915f5b8581106102ae57508360019510610296575b505050811b01600455610132565b01515f1960f88460031b161c191690555f8080610288565b91926020600181928685015181550194019201610276565b60045f527f8a35acfbc15ff81a39ae7d344fd709f28e8600b4aa8c65c6b64bfe7fe36bd19b601f830160051c8101916020841061031f575b601f0160051c01905b8181106103145750610104565b5f8155600101610307565b90915081906102fe565b634e487b7160e01b5f52602260045260245ffd5b90607f16906100f2565b634e487b7160e01b5f52604160045260245ffd5b015190505f806100bc565b601f1982169360035f52805f20915f5b8681106103af5750836001959610610397575b505050811b016003556100d1565b01515f1960f88460031b161c191690555f8080610389565b91926020600181928685015181550194019201610376565b60035f527fc2575a0e9e593c00f959f8c92f12db2869c3395a3b0502d05e2516446f71f85b601f830160051c81019160208410610420575b601f0160051c01905b81811061041557506100a2565b5f8155600101610408565b90915081906103ff565b90607f1690610090565b5f80fdfe6080806040526004361015610012575f80fd5b5f3560e01c90816306fdde0314610a4f57508063095ea7b314610a2957806318160ddd14610a0c5780631c0973a4146109e457806323b872dd14610927578063313ce5671461090c57806337beafe0146108c9578063395093511461087b57806370a0823114610844578063715018a6146107e9578063881ce1c3146107ce5780638da5cb5b146107a657806395d89b411461068b5780639dc29fac1461042b578063a0712d6814610304578063a457c2d714610261578063a9059cbb14610230578063d5abeb0114610213578063dd62ed3e146101c35763f2fde38b146100f8575f80fd5b346101bf5760203660031901126101bf57610111610b48565b610119610dfb565b6001600160a01b0316801561016b57600580546001600160a01b0319811683179091556001600160a01b03167f8be0079c531659141344cd1fd0a4f28419497f9722a3daafe3b4186f6b6457e05f80a3005b60405162461bcd60e51b815260206004820152602660248201527f4f776e61626c653a206e6577206f776e657220697320746865207a65726f206160448201526564647265737360d01b6064820152608490fd5b5f80fd5b346101bf5760403660031901126101bf576101dc610b48565b6101e4610b5e565b6001600160a01b039182165f908152600160209081526040808320949093168252928352819020549051908152f35b346101bf575f3660031901126101bf576020600654604051908152f35b346101bf5760403660031901126101bf5761025661024c610b48565b6024359033610c85565b602060405160018152f35b346101bf5760403660031901126101bf5761027a610b48565b60243590335f52600160205260405f2060018060a01b0382165f5260205260405f2054918083106102b15761025692039033610b81565b60405162461bcd60e51b815260206004820152602560248201527f45524332303a2064656372656173656420616c6c6f77616e63652062656c6f77604482015264207a65726f60d81b6064820152608490fd5b346101bf5760203660031901126101bf57600435610320610dfb565b60025461032d8282610b74565b600654106103d6573315610391578161034591610b74565b600255335f525f60205260405f208181540190556040519081525f7fddf252ad1be2c89b69c2b068fc378daa952ba7f163c4a11628f55a4df523b3ef60203393a3602060405160018152f35b60405162461bcd60e51b815260206004820152601f60248201527f45524332303a206d696e7420746f20746865207a65726f2061646472657373006044820152606490fd5b60405162461bcd60e51b815260206004820152602760248201527f45524332303a2063616e6e6f74206d696e74206d6f72652074686174206d617860448201526620737570706c7960c81b6064820152608490fd5b346101bf5760403660031901126101bf57610444610b48565b600754602435916001600160a01b039091169033820361062f576001600160a01b03169081156105ea57156105a557805f525f6020528160405f20541061055157805f525f60205260405f20549082821061050157825f928284528360205203604083205582600254036002557fddf252ad1be2c89b69c2b068fc378daa952ba7f163c4a11628f55a4df523b3ef6020604051858152a36006549081039081116104ed57600655005b634e487b7160e01b5f52601160045260245ffd5b60405162461bcd60e51b815260206004820152602260248201527f45524332303a206275726e20616d6f756e7420657863656564732062616c616e604482015261636560f01b6064820152608490fd5b60405162461bcd60e51b815260206004820152602660248201527f47454852546f6b656e3a206275726e20616d6f756e7420657863656564732062604482015265616c616e636560d01b6064820152608490fd5b60405162461bcd60e51b815260206004820152601d60248201527f45524332303a206e6f206275726e20636f6e74726163742073657475700000006044820152606490fd5b60405162461bcd60e51b815260206004820152601d60248201527f45524332303a206e656564206275726e2066726f6d2061206f776e65720000006044820152606490fd5b60405162461bcd60e51b815260206004820152602e60248201527f476f626c696e546f6b656e3a204f6e6c7920626972746820636f6e747261637460448201526d2063616e2063616c6c207468697360901b6064820152608490fd5b346101bf575f3660031901126101bf576040515f6004548060011c9060018116801561079c575b6020831081146107885782855290811561076c5750600114610717575b50819003601f01601f191681019067ffffffffffffffff821181831017610703576106ff82918260405282610b1e565b0390f35b634e487b7160e01b5f52604160045260245ffd5b905060045f527f8a35acfbc15ff81a39ae7d344fd709f28e8600b4aa8c65c6b64bfe7fe36bd19b5f905b828210610756575060209150820101826106cf565b6001816020925483858801015201910190610741565b90506020925060ff191682840152151560051b820101826106cf565b634e487b7160e01b5f52602260045260245ffd5b91607f16916106b2565b346101bf575f3660031901126101bf576005546040516001600160a01b039091168152602090f35b346101bf575f3660031901126101bf57602060405160018152f35b346101bf575f3660031901126101bf57610801610dfb565b600580546001600160a01b031981169091555f906001600160a01b03167f8be0079c531659141344cd1fd0a4f28419497f9722a3daafe3b4186f6b6457e08280a3005b346101bf5760203660031901126101bf576001600160a01b03610865610b48565b165f525f602052602060405f2054604051908152f35b346101bf5760403660031901126101bf57610256610897610b48565b335f52600160205260405f2060018060a01b0382165f526020526108c260405f206024359054610b74565b9033610b81565b346101bf5760203660031901126101bf576108e2610b48565b6108ea610dfb565b600780546001600160a01b0319166001600160a01b0392909216919091179055005b346101bf575f3660031901126101bf57602060405160128152f35b346101bf5760603660031901126101bf57610940610b48565b610948610b5e565b6001600160a01b0382165f908152600160208181526040808420338552909152909120549260443592918401610983575b6102569350610c85565b82841061099f5761099a8361025695033383610b81565b610979565b60405162461bcd60e51b815260206004820152601d60248201527f45524332303a20696e73756666696369656e7420616c6c6f77616e63650000006044820152606490fd5b346101bf575f3660031901126101bf576007546040516001600160a01b039091168152602090f35b346101bf575f3660031901126101bf576020600254604051908152f35b346101bf5760403660031901126101bf57610256610a45610b48565b6024359033610b81565b346101bf575f3660031901126101bf575f6003548060011c90600181168015610b14575b6020831081146107885782855290811561076c5750600114610abf5750819003601f01601f191681019067ffffffffffffffff821181831017610703576106ff82918260405282610b1e565b905060035f527fc2575a0e9e593c00f959f8c92f12db2869c3395a3b0502d05e2516446f71f85b5f905b828210610afe575060209150820101826106cf565b6001816020925483858801015201910190610ae9565b91607f1691610a73565b602060409281835280519182918282860152018484015e5f828201840152601f01601f1916010190565b600435906001600160a01b03821682036101bf57565b602435906001600160a01b03821682036101bf57565b919082018092116104ed57565b6001600160a01b0316908115610c34576001600160a01b0316918215610be45760207f8c5be1e5ebec7d5bd14f71427d1e84f3dd0314c0f7b2291e5b200ac8c7c3b92591835f526001825260405f20855f5282528060405f2055604051908152a3565b60405162461bcd60e51b815260206004820152602260248201527f45524332303a20617070726f766520746f20746865207a65726f206164647265604482015261737360f01b6064820152608490fd5b60405162461bcd60e51b8152602060048201526024808201527f45524332303a20617070726f76652066726f6d20746865207a65726f206164646044820152637265737360e01b6064820152608490fd5b6001600160a01b0316908115610da8576001600160a01b0316918215610d5757815f525f60205260405f2054818110610d0357817fddf252ad1be2c89b69c2b068fc378daa952ba7f163c4a11628f55a4df523b3ef92602092855f525f84520360405f2055845f525f825260405f20818154019055604051908152a3565b60405162461bcd60e51b815260206004820152602660248201527f45524332303a207472616e7366657220616d6f756e7420657863656564732062604482015265616c616e636560d01b6064820152608490fd5b60405162461bcd60e51b815260206004820152602360248201527f45524332303a207472616e7366657220746f20746865207a65726f206164647260448201526265737360e81b6064820152608490fd5b60405162461bcd60e51b815260206004820152602560248201527f45524332303a207472616e736665722066726f6d20746865207a65726f206164604482015264647265737360d81b6064820152608490fd5b6005546001600160a01b03163303610e0f57565b606460405162461bcd60e51b815260206004820152602060248201527f4f776e61626c653a2063616c6c6572206973206e6f7420746865206f776e65726044820152fdfea26469706673582212202beb638bee55012dcf7be12ccc89e6691095b1ea578117f295a43f6555fdaac264736f6c634300081c0033",
    "sourcePath": "c:/Git/Projetos/GEHRCoin/Contracts/contracts/GEHRToken.sol",
    "compiler": {
        "name": "solc",
        "version": "0.8.28+commit.7893614a"
    },
    "functionHashes": {
        "allowance(address,address)": "dd62ed3e",
        "approve(address,uint256)": "095ea7b3",
        "balanceOf(address)": "70a08231",
        "burn(address,uint256)": "9dc29fac",
        "burnContract()": "1c0973a4",
        "decimals()": "313ce567",
        "decreaseAllowance(address,uint256)": "a457c2d7",
        "increaseAllowance(address,uint256)": "39509351",
        "isGEHRToken()": "881ce1c3",
        "maxSupply()": "d5abeb01",
        "mint(uint256)": "a0712d68",
        "name()": "06fdde03",
        "owner()": "8da5cb5b",
        "renounceOwnership()": "715018a6",
        "setBurnContract(address)": "37beafe0",
        "symbol()": "95d89b41",
        "totalSupply()": "18160ddd",
        "transfer(address,uint256)": "a9059cbb",
        "transferFrom(address,address,uint256)": "23b872dd",
        "transferOwnership(address)": "f2fde38b"
    },
    "gasEstimates": {
        "creation": {
            "codeDepositCost": "744200",
            "executionCost": "infinite",
            "totalCost": "infinite"
        },
        "external": {
            "allowance(address,address)": "2969",
            "approve(address,uint256)": "24372",
            "balanceOf(address)": "2581",
            "burn(address,uint256)": "79484",
            "burnContract()": "2346",
            "decimals()": "263",
            "decreaseAllowance(address,uint256)": "26956",
            "increaseAllowance(address,uint256)": "26807",
            "isGEHRToken()": "373",
            "maxSupply()": "2630",
            "mint(uint256)": "infinite",
            "name()": "infinite",
            "owner()": "2522",
            "renounceOwnership()": "28258",
            "setBurnContract(address)": "26767",
            "symbol()": "infinite",
            "totalSupply()": "2300",
            "transfer(address,uint256)": "51106",
            "transferFrom(address,address,uint256)": "77370",
            "transferOwnership(address)": "28586"
        }
    }
}